:020000040000FA
:060000000A128A11EA2F2A
:10001A008030831603139F000800E830F000033095
:10002A00F1007908F3007808F2000A128A15AA2664
:10003A000A128A11710883160313A3007008A2001A
:10004A00E830F0000330F1007908F3007808F20094
:10005A000A128A1533260A128A11710883120313A7
:10006A00ED007008EC006430F0000030F1006D081B
:10007A00F3006C08F2000A128A15AA260A128A11DB
:10008A00710883160313A1007008A0006430F00001
:10009A000030F100831203136D08F3006C08F200BC
:1000AA000A128A1533260A128A1171088312031357
:1000BA00EB007008EA000A30F0000030F1006B082B
:1000CA00F3006A08F2000A128A15AA260A128A118D
:1000DA00710883120313E9007008E8000A30F0007F
:1000EA000030F1006B08F3006A08F2000A128A1560
:1000FA0033260A128A11710883120313E700700863
:10010A00E6006808303E0A128A157E250A128A110C
:10011A00831203136608303E0A128A157E250A12D4
:10012A008A1108000030F000F1000A128A156D26C3
:10013A000A128A11F30100300A128A15BF250A121F
:10014A008A110C300A128A150C260A128A110A30F0
:10015A0083120313DF005F08F30000300A128A15C6
:10016A00BF250A128A11831203136E08F0006F0862
:10017A00F100F201F30100300A128A11F2210A1287
:10018A008A11730883120313A7007208A600710864
:10019A00A5007008A4004430A3007F30A200C0303C
:1001AA00A1000030A0000A128A11AC220A128A1198
:1001BA00831203132308C1002208C0002108BF00CC
:1001CA002008BE004030BD00A030BC000030BB009B
:1001DA000030BA000A128A1189240A128A1183127B
:1001EA0003133D08E3003C08E2003B08E1003A083B
:1001FA00E0006308C1006208C0006108BF0060082F
:10020A00BE004130BD002030BC000030BB000030D1
:10021A00BA000A128A1189240A128A118312031354
:10022A003D08D7003C08D6003B08D5003A08D40060
:10023A000A128A15EE260A128A1183120313550826
:10024A00E5005408E4006508F9006408F8000A1299
:10025A008A156A270A128A110F3083120313DF00E4
:10026A005F08F30000300A128A15BF250A128A11A4
:10027A001A300A128A150C260A128A11080001304D
:10028A00F0000030F1000A128A156D260A128A114E
:10029A00F30101300A128A15BF250A128A110130A8
:1002AA000A128A150C260A128A110A3083120313BB
:1002BA00DF005F08F30001300A128A15BF250A120F
:1002CA008A11831203136E08F0006F08F100F2011D
:1002DA00F30100300A128A11F2210A128A117308F4
:1002EA0083120313A7007208A6007108A5007008FC
:1002FA00A4004430A3007F30A200C030A100003027
:10030A00A0000A128A11AC220A128A11831203135C
:10031A002308C1002208C0002108BF002008BE002F
:10032A004030BD00A030BC000030BB000030BA0035
:10033A000A128A1189240A128A11831203133D08A8
:10034A00E3003C08E2003B08E1003A08E0006308E9
:10035A00C1006208C0006108BF006008BE004230E8
:10036A00BD00C830BC000030BB000030BA000A1221
:10037A008A1189240A128A11831203133D08D700AD
:10038A003C08D6003B08D5003A08D4000A128A1560
:10039A00EE260A128A11831203135508E50054083F
:1003AA00E4006508F9006408F8000A128A111220AC
:1003BA000A128A110C3083120313DF005F08F3005C
:1003CA0001300A128A15BF250A128A1117300A1239
:1003DA008A150C260A128A110800F80078080319EF
:1003EA00F729F8290C2AF31FFB29FC290C2A700982
:1003FA00FA007109FB007209FC007309FD00FA0A90
:10040A000319FB0A0319FC0A0319FD0A142A7308C3
:10041A00FD007208FC007108FB007008FA007308FE
:10042A00720471047004031D1B2A1C2A252A003039
:10043A00F3000030F2000030F1000030F000AB2A87
:10044A009630F4007408F900372A0130F400740871
:10045A00F90701300310FD0CFC0CFB0CFA0CFF3EF3
:10046A00031D2F2AFE307D05031D3C2A3D2A2A2A18
:10047A00592A0130F4007408F9070130FA070030EC
:10048A0003180130FB07003003180130FC07003065
:10049A0003180130FD0701300310FD0CFC0CFB0CA6
:1004AA00FA0CFF3E031D512AFF307D05031D5E2A0B
:1004BA005F2A3E2A6B2A0130F9020130F400031048
:1004CA00FA0DFB0DFC0DFD0DF40B642AFC1B6E2AC4
:1004DA006F2A752A023079020318742A752A602A4B
:1004EA007918782A792A812AFF30FA05FF30FB0524
:1004FA007F30FC05FF30FD050310F90C7908F40084
:10050A00F501F601F70118300310F40DF50DF60D9B
:10051A00F70DFF3E031D892A7408FA047508FB04C7
:10052A007608FC047708FD04780803199D2A9E2A98
:10053A00A32AF31FA12AA22AA32AFD177D08F300E2
:10054A007C08F2007B08F1007A08F00008008312A8
:10055A00031327088039A8002808B1002708A80033
:10056A002807A9002908B800A61FBC2ABD2ABE2A46
:10057A00381438080319C22AC32AD32A380A031D91
:10058A00C72AC82AD02A0030A7000030A6000030A7
:10059A00A5000030A400A617A701DB2A0030A70097
:1005AA000030A6000030A5000030A40023088039DE
:1005BA00A8002808B1062308A8002807A9002908C6
:1005CA00B900A21FE92AEA2AEB2A391439080319C1
:1005DA00EF2AF02A002B390A031DF42AF52AFD2AEC
:1005EA000030A3000030A2000030A1000030A000BB
:1005FA00A217A301082B0030A3000030A20000308C
:10060A00A1000030A0002308220421042004031DB5
:10061A000F2B102B292B0030A7000030A60000302A
:10062A00A5000030A4008030A6047F30A70431085A
:10063A00A8002808A7042708A3002608A20025085E
:10064A00A1002408A000882C3808031D2D2B2E2B6E
:10065A00372B0030A3000030A2000030A100003088
:10066A00A000882C3808A800A9012908AB0039087D
:10067A002802AA00031CAB032A087F3EB2002B08FB
:10068A000318013E003EB3002708B0002608AF0059
:10069A002508AE002408AD000030A7000030A600EF
:1006AA000030A5000030A4000030B7000030B600CA
:1006BA000030B5000030B400B901AD2B3908031978
:1006CA00672B682B882B0130A8000310AD0DAE0DE7
:1006DA00AF0DB00DA80B6A2B0130A8000310A40DB2
:1006EA00A50DA60DA70DA80B732BB71F7D2B7E2B6F
:1006FA007F2B24140130A8000310B40DB50DB60DDC
:10070A00B70DA80B812B23083002031D962B220854
:10071A002F02031D962B21082E02031D962B20085B
:10072A002D02031C992B9A2BA92B37172008AD02EF
:10073A002108031C210FAE022208031C220FAF025C
:10074A002308031C230FB0020130A8002808B907A8
:10075A001A303902031CB22BB32B632B30082F0437
:10076A002E042D040319BA2BBB2BDA2B3414DA2BE3
:10077A000130A8000310A40DA50DA60DA70DA80B06
:10078A00BF2BB71FC92BCA2BCB2B24140130A800AF
:10079A000310B40DB50DB60DB70DA80BCD2BFF3058
:1007AA00B2070318B30AFF30B307A61FDD2BDE2BEF
:1007BA00BD2BB901B71FE22BE32BFF2BFF3034050A
:1007CA00A800FF303505A900FF303605AA007F30A2
:1007DA003705AB002B082A04290428040319F62B31
:1007EA00F72BFA2BB901B90AFF2B241CFD2BFE2B80
:1007FA00FF2BF72B39080319032C042C352C013055
:10080A00A407003003180130A5070030031801308F
:10081A00A607003003180130A707271C152C162C31
:10082A00352C2408A8002508A9002608AA002708AC
:10083A00AB000130AC002B0DAB0CAA0CA90CA80C18
:10084A00AC0B202C2B08A7002A08A6002908A50013
:10085A002808A4000130B2070318B30A0030B3070E
:10086A003308803AFF0080307F02031D3E2CFF30A0
:10087A003202031C412C422C502CFF3083120313EA
:10088A00B2000030B3000030A7000030A6000030EC
:10089A00A5000030A400831203133308803AFF0036
:1008AA0080307F02031D5B2C0130320203185E2C5C
:1008BA005F2C6C2C83120313B201B3010030A70022
:1008CA000030A6000030A5000030A400B101831258
:1008DA0003133208A8002808B800381C752C762C97
:1008EA00782CA6177C2C7F30A8002808A605380883
:1008FA00A8000310280CA9002908A7003108A8009D
:10090A002808A704202B0800831203133D08803906
:10091A00C2004208C7003D08C2004207C30043089C
:10092A00CD00BC1F992C9A2C9B2C4D144D080319F1
:10093A009F2CA02CAF2C4D0A031DA42CA52CAD2C4A
:10094A000030BD000030BC000030BB000030BA00EF
:10095A00BC17B72C0030BD000030BC000030BB0013
:10096A000030BA0041088039C2004208C70641086F
:10097A00C2004207C3004308CC00C01FC52CC62CC6
:10098A00C72C4C144C080319CB2CCC2CDB2C4C0A4E
:10099A00031DD02CD12CD92C0030C1000030C0004E
:1009AA000030BF000030BE00C017E32C0030C10089
:1009BA000030C0000030BF000030BE004C080319F0
:1009CA00E72CE82CED2C4D08031DEC2CED2CF62C15
:1009DA000030BD000030BC000030BB000030BA005F
:1009EA00E92F3A08C2004208F00040080A128A15A4
:1009FA00E5250A128A11710883120313D3007008BD
:100A0A00D2005208C200C301C401C5014508CB0087
:100A1A004408CA004308C9004208C8005308C20073
:100A2A00C301C401C5014508D1004408D0004308E8
:100A3A00CF004208CE003B08C2004208F0003F083F
:100A4A000A128A15E5250A128A11710883120313FC
:100A5A00D3007008D2005208C200C301C401C50104
:100A6A004208C807430803110318013E03193E2D23
:100A7A00C907440803110318013E0319452DCA0783
:100A8A00450803110318013E03194C2DCB075308DF
:100A9A00C200C301C401C5014208CE0743080311BD
:100AAA000318013E03195A2DCF07440803110318EE
:100ABA00013E0319612DD007450803110318013EB1
:100ACA000319682DD1073C08C2004208F0003E080D
:100ADA000A128A15E5250A128A117108831203136C
:100AEA00D3007008D2005208C200C301C401C50174
:100AFA004208C807430803110318013E0319862D4B
:100B0A00C907440803110318013E03198D2DCA07AA
:100B1A00450803110318013E0319942DCB07530806
:100B2A00C200C301C401C5014208CE07430803112C
:100B3A000318013E0319A22DCF0744080311031815
:100B4A00013E0319A92DD007450803110318013ED8
:100B5A000319B02DD1070830C2000310C80DC90D02
:100B6A00CA0DCB0DC20BB22D3B08C2004208F000E1
:100B7A003E080A128A15E5250A128A11710883129B
:100B8A000313D3007008D2005208C2005308C300EE
:100B9A00C401C5014208C807430803110318013EEE
:100BAA000319D82DC907440803110318013E031974
:100BBA00DF2DCA07450803110318013E0319E62D64
:100BCA00CB073A08C2004208F0003F080A128A1509
:100BDA00E5250A128A11710883120313D3007008DB
:100BEA00D2005208C2005308C300C401C50142081A
:100BFA00C807430803110318013E0319052EC90744
:100C0A00440803110318013E03190C2ECA074508AC
:100C1A0003110318013E0319132ECB070830C20033
:100C2A000310C80DC90DCA0DCB0DC20B152E3A08FB
:100C3A00C2004208F0003E080A128A15E5250A1287
:100C4A008A11710883120313D3007008D200520864
:100C5A00C2005308C300C401C5014208C8074308BB
:100C6A0003110318013E03193B2EC9074408031157
:100C7A000318013E0319422ECA0745080311031837
:100C8A00013E0319492ECB073B08C2004208F00077
:100C9A0040080A128A15E5250A128A117108831278
:100CAA000313D3007008D2005208C2005308C300CD
:100CBA00C401C5014208CE07430803110318013EC7
:100CCA000319682ECF07440803110318013E0319BC
:100CDA006F2ED007450803110318013E0319762E1B
:100CEA00D1073C08C2004208F0003F080A128A15E0
:100CFA00E5250A128A11710883120313D3007008BA
:100D0A00D2005208C2005308C300C401C5014208F8
:100D1A00CE07430803110318013E0319952ECF0786
:100D2A00440803110318013E03199C2ED0074508F5
:100D3A0003110318013E0319A32ED1073C08C20070
:100D4A004208F00040080A128A15E5250A128A119B
:100D5A00710883120313D3007008D2005208C2002C
:100D6A005308C300C401C50108300310C20DC30DE6
:100D7A00C40DC50DFF3E031DBA2E4208CE07430817
:100D8A0003110318013E0319CB2ECF0744080311A0
:100D9A000318013E0319D22ED00745080311031880
:100DAA00013E0319D92ED1074808C2004908C300D9
:100DBA004A08C4004B08C50018300310C50CC40CFF
:100DCA00C30CC20CFF3E031DE22E4208CE074308A5
:100DDA0003110318013E0319F32ECF074408031128
:100DEA000318013E0319FA2ED00745080311031808
:100DFA00013E0319012FD1070830C2000310C80DA4
:100E0A00C90DCA0DCB0DC20B032F4D084C07C200EA
:100E1A00C301C30D4208823ED20043080318013EB3
:100E2A00FF3ED300352F0130C2000310CE0DCF0D87
:100E3A00D00DD10DC20B1A2FCB1F242F252F262FF1
:100E4A004E140130C2000310C80DC90DCA0DCB0DD6
:100E5A00C20B282FFF30D2070318D30AFF30D3075B
:100E6A00D01F382F392F182FCC01CB1F3D2F3E2FE3
:100E7A005A2FFF304805C200FF304905C300FF3032
:100E8A004A05C4007F304B05C500450844044304A5
:100E9A0042040319512F522F552FCC01CC0A5A2F35
:100EAA004E1C582F592F5A2F522F4C0803195E2FB8
:100EBA005F2F902F0130CE07003003180130CF0783
:100ECA00003003180130D007003003180130D10771
:100EDA00511C702F712F902F4E08C2004F08C3006B
:100EEA005008C4005108C5000130C600450DC50CA4
:100EFA00C40CC30CC20CC60B7B2F4508D100440896
:100F0A00D0004308CF004208CE000130D2070318B0
:100F1A00D30A0030D3075308803AFF0080307F029B
:100F2A00031D992FFF305202031C9C2F9D2FA82FBF
:100F3A007F3083120313D1008030D0000030CF00FD
:100F4A000030CE00DD2F831203135308803AFF00CE
:100F5A0080307F02031DB32F013052020318B62FCF
:100F6A00B72FC32F003083120313D1000030D000F3
:100F7A000030CF000030CE00C701DD2F83120313EB
:100F8A005208C2004208CD00FF30CE05FF30CF051F
:100F9A007F30D0050030D1054D1CD42FD52FD62F48
:100FAA00D0174D08C2000310420CC3004308D100F9
:100FBA004708C2004208D1045108BD005008BC00CD
:100FCA004F08BB004E08BA00080083120313E6015B
:100FDA00E701E801E901EA01EB01EC01ED01EE01AB
:100FEA00EF0183160313A001A101A201A30183014A
:100FFA000A128A159B2D08308A000408840A82077F
:10100A0000345234413431342D343E34743465342E
:10101A006D3470343A3400345234413430342D341F
:10102A003E3456346F346C3474343A3400342734D2
:08103A00433400345634003445
:101A900001300A128A1561250A128A1506300A12C7
:101AA0008A1561250A128A150C300A128A156125D9
:101AB0000A128A1538300A128A1561250A128A1507
:101AC0000800F200720883120313880006128616BB
:101AD0004130F100EE30F000F00B6C2DF10B6C2D6D
:101AE00000008312031386124130F100EE30F00043
:101AF000F00B782DF10B782D00000800F200720831
:101B0000831203138800061686164130F100EE306A
:101B1000F000F00B892DF10B892D000083120313C7
:101B200086124130F100EE30F000F00B952DF10BF4
:101B3000952D0000080083160313860183120313FA
:101B400086018316031388018312031388010A1286
:101B50008A1548250A128A150A128A110D200A12BE
:101B60008A150A128A1197200A128A150A128A11F6
:101B700044210A128A15B12D0A128A110028F40094
:101B80007408031DC42DC52DD22D80300A128A156C
:101B900061250A128A157308803E0A128A1561258A
:101BA0000A128A157403031DD62DD72DE42DC030DB
:101BB0000A128A1561250A128A157308C03E0A1294
:101BC0008A1561250A128A150800F800F401F5014A
:101BD0007008F200F3017208F6007308F700781C31
:101BE000F22DF32DF92D7608F4070318F50A77087E
:101BF000F50701300310F60DF70DFF3E031DFA2D1A
:101C00000310F80C7808031D062E072EEF2D75081B
:101C1000F1007408F0000800F500262E7508840015
:101C20000A128A1500200A128A150A128A157E25C0
:101C30000A128A150130F3007308F5070730F40023
:101C40007D30F300F30B222EF40B222E7508840056
:101C50000A128A1500200A128A15003A031D312E35
:101C6000322E0E2E0800700871040319382E392EFA
:101C7000682EF501F50A472E01300310F00DF10D25
:101C8000FF3E031D3D2E0130F4007408F507F11FDF
:101C90004A2E4B2E3C2E71087302031D512E7008E4
:101CA0007202031C542E552E5B2E7008F20271082E
:101CB000031CF303F30201300310F10CF00CFF3EA0
:101CC000031D5C2E0130F502031D672E682E4B2E7E
:101CD0007308F1007208F0000800992EC5308312D5
:101CE00003139F001F19752E762E722E1E08EF000B
:101CF000831603131E0883120313EE00A92ECD30A2
:101D0000831203139F001F19862E872E832E762E93
:101D1000D530831203139F001F198F2E902E8C2E07
:101D2000762E831203139F011F19972E982E942E3F
:101D3000762E7108003A03199E2E912E7008003AF3
:101D400003196E2E013A03197F2E033A0319882EC8
:101D5000912E0800F501F601700871040319B12EE7
:101D6000B22EE92EF701F70AC02E01300310F00D54
:101D7000F10DFF3E031DB62E0130F4007408F70785
:101D8000F11FC32EC42EB52E01300310F50DF60D34
:101D9000FF3E031DC52E71087302031DD12E70086E
:101DA0007202031CD42ED52EDC2E7008F2027108AC
:101DB000031CF303F302751401300310F10CF00C53
:101DC000FF3E031DDD2E0130F702031DE82EE92E34
:101DD000C42E7608F1007508F00008000310831285
:101DE0000313560D570DD8005808DE005E08031D7A
:101DF000FA2EFB2E042F0030D7000030D600003022
:101E0000D5000030D400692F5408D8005508D900F7
:101E10005608DA005708DB001F300310DB0CDA0C21
:101E2000D90CD80CFF3E031D0D2F5808DC005C08B0
:101E3000DD00D617FF30D405FF30D505FF30D605BD
:101E40000030D7059630DE02DE1F272F282F422FC5
:101E50005E08803A973E03182E2F2F2F302FFB2E2F
:101E600001300310D70CD60CD50CD40CFF3E031D4B
:101E7000312F0130D8005808DE07031D402F412FB5
:101E8000302F592F20305E02031C472F482F542F2C
:101E9000FB2E0130D8000310D40DD50DD60DD70D73
:101EA000D80B4B2F0130DE025E08031D582F592F2F
:101EB000492F5D0803195D2F5E2F692FD409D509BD
:101EC000D609D709D40A0319D50A0319D60A031962
:101ED000D70A0800E830F0000330F1007908F30079
:101EE0007808F2000A128A15AA260A128A157108C1
:101EF00083160313A3007008A200E830F00003303B
:101F0000F1007908F3007808F2000A128A153326E6
:101F10000A128A15710883120313ED007008EC0091
:101F20006430F0000030F1006D08F3006C08F2003E
:101F30000A128A15AA260A128A1571088316031333
:101F4000A1007008A0006430F0000030F10083129E
:101F500003136D08F3006C08F2000A128A15332689
:101F60000A128A15710883120313EB007008EA0045
:101F70000A30F0000030F1006B08F3006A08F2004C
:101F80000A128A15AA260A128A15710883120313E7
:101F9000E9007008E8000A30F0000030F1006B083A
:101FA000F3006A08F2000A128A1533260A128A150B
:101FB000710883120313E7007008E6008316031309
:101FC0002008303E0A128A157E250A128A158312CD
:101FD00003136808303E0A128A157E250A128A15F4
:101FE0002E300A128A157E250A128A1583120313CF
:101FF0006608303E0A128A157E250A128A150800E4
:02400E007A3FF7
:00000001FF
