:020000040000FA
:100000000A128A11EE2F00308A000408840A82073F
:10001000003448346134763465342034613420341B
:100020006E34693463346534203464346134793433
:10003000213400342034573465346C3463346F34E5
:0A0040006D346534003420340034C0
:100CE80001300A128A11A7260A128A1108007E0802
:100CF8008A007F0882000A128A117B260A128A114A
:100D08008000840A04087D0603190034FF0A0319C9
:100D1800FE0A7F2E01300A128A11A7260A128A11AA
:100D280006300A128A11A7260A128A110C300A12F2
:100D38008A11A7260A128A1138300A128A11A726A0
:100D48000A128A110800F20072088312031388003D
:100D5800061286164130F100EE30F000F00BB22E8C
:100D6800F10BB22E00008312031386124130F100FA
:100D7800EE30F000F00BBE2EF10BBE2E0000080086
:100D8800F200720883120313880006168616413093
:100D9800F100EE30F000F00BCF2EF10BCF2E00005B
:100DA8008312031386124130F100EE30F000F00B8D
:100DB800DB2EF10BDB2E00000800F4007408031D85
:100DC800E62EE72EF42E80300A128A11A7260A1280
:100DD8008A117308803E0A128A11A7260A128A11FC
:100DE8007403031DF82EF92E062FC0300A128A113B
:100DF800A7260A128A117308C03E0A128A11A7266A
:100E08000A128A110800F500212F750884000A12B9
:100E18008A1103200A128A110A128A11C4260A1298
:100E28008A110130F3007308F5070730F4007D30AC
:100E3800F300F30B1D2FF40B1D2F750884000A1205
:100E48008A1103200A128A11003A031D2C2F2D2F14
:100E5800092F0800CF340034CE340034CD340034A8
:100E6800CC340034CB340034CA340034C9340034B0
:100E7800C8340034C7340034C6340034C5340034B0
:100E8800C4340034C4340034C3340034C2340034AD
:100E9800C1340034C0340034003400340034003429
:100EA80000340034C0340034C1340034C234003457
:100EB800C3340034C4340034C5340034C634003478
:100EC800C7340034C8340034C9340034CA34003458
:100ED800CB340034CC340034CD340034CE34003438
:100EE800CF3400340034003400340034003400348B
:100EF800003400348316031386018312031386011A
:100F08008316031388018312031388010A128A11B6
:100F18008E260A128A110230F6007608F300003095
:100F28000A128A11E1260A128A1112300A128A114B
:100F380007270A128A11F901FA017908F6007607DB
:100F4800203E8400831300080A128A11A7260A1279
:100F58008A1101300A128A1107270A128A117908A0
:100F6800F6007607223E8400831300080A128A11CD
:100F7800A7260A128A111B300A128A1107270A1299
:100F88008A110330F8008A30F7005530F600F60B66
:100F9800CB2FF70BCB2FF80BCB2FD22F0130F90724
:100FA8000318FA0A0030FA077A08803AFF008030FE
:100FB8007F02031DE12F11307902031CE42FE52F76
:100FC800A12F0A128A1174260A128A118F2F0A1267
:100FD8008A11002883137030FD000730FE002E3080
:100FE800FF00203084000A128A117F260A128A1113
:080FF80083010A128A117E2F09
:02400E007A3FF7
:00000001FF
