:020000040000FA
:060000000A128A11FC2F18
:100F5E008316031387018312031387010130831253
:100F6E00031387000330F2008A30F1005530F00091
:100F7E00F00BBF2FF10BBF2FF20BBF2FC62F02307E
:100F8E008312031387000830F2009D30F100053004
:100F9E00F000F00BD02FF10BD02FF20BD02FD72F5C
:100FAE0004308312031387001530F2004B30F1002A
:100FBE00BE30F000F00BE12FF10BE12FF20BE12F21
:100FCE0000008312031387011A30F2005E30F10025
:100FDE006E30F000F00BF12FF10BF12FF20BF12F21
:100FEE000000B52F0A128A11002883010A128A11F5
:020FFE00AF2F13
:02400E007A3FF7
:00000001FF
