:020000040000FA
:060000000A128A11EA2F2A
:10000A000030831203138C1A013008008312031381
:10001A008C1E102811280B281A080800F5002D2814
:10002A00750884000A128A1500200A128A110A1217
:10003A008A1556220A128A110130F3007308F5074D
:10004A000730F4007D30F300F30B2928F40B29283C
:10005A00750884000A128A1500200A128A11003AC9
:10006A00031D38283928152808000030F000F1004F
:10007A000A128A151F230A128A11F30100300A1282
:10008A008A1598220A128A1152300A128A111320EA
:10009A000A128A1133300A128A1573220A128A1135
:1000AA000A3083120313DF005F08F30000300A12DC
:1000BA008A1598220A128A11831603132208F0005D
:1000CA002308F100F201F30100300A128A154627CB
:1000DA000A128A11730883120313A7007208A60072
:1000EA007108A5007008A4004430A3007F30A20064
:1000FA00C030A1000030A0000A128A11AC220A12F4
:10010A008A11831203132308C1002208C0002108A0
:10011A00BF002008BE004030BD00A030BC00003047
:10012A00BB000030BA000A128A1189240A128A1105
:10013A00831203133D08E3003C08E2003B08E10098
:10014A003A08E0006308C1006208C0006108BF0005
:10015A006008BE004130BD002030BC000030BB004A
:10016A000030BA000A128A1189240A128A118312EB
:10017A0003133D08D7003C08D6003B08D5003A08CF
:10018A00D4000A128A1503240A128A11831203134D
:10019A005508E5005408E4006508F9006408F80009
:1001AA000A128A1517260A128A118312031365087E
:1001BA00F9006408F8000A128A1585250A128A11BC
:1001CA000F3083120313DF005F08F30000300A12B6
:1001DA008A1598220A128A1160300A128A1113208B
:1001EA000A128A1160300A128A1573220A128A11B7
:1001FA000D300A128A150F220A128A1108000130DC
:10020A00F0000030F1000A128A151F230A128A111F
:10021A00F30101300A128A1598220A128A1147300C
:10022A000A128A1113200A128A111D300A128A151B
:10023A0073220A128A110A3083120313DF005F083D
:10024A00F30001300A128A1598220A128A118316BB
:10025A0003132208F0002308F100F201F301003031
:10026A000A128A1546270A128A117308831203137F
:10027A00A7007208A6007108A5007008A4004430FF
:10028A00A3007F30A200C030A1000030A0000A12F3
:10029A008A11AC220A128A11831203132308C1009D
:1002AA002208C0002108BF002008BE004030BD005F
:1002BA00A030BC000030BB000030BA000A128A111C
:1002CA0089240A128A11831203133D08E3003C08A9
:1002DA00E2003B08E1003A08E0006308C100620856
:1002EA00C0006108BF006008BE004230BD00C830CF
:1002FA00BC000030BB000030BA000A128A118924FF
:10030A000A128A11831203133D08D7003C08D6004B
:10031A003B08D5003A08D4000A128A1503240A12A7
:10032A008A11831203135508E5005408E40065088E
:10033A00F9006408F8000A128A1502250A128A11BD
:10034A00831203136508F9006408F8000A128A1573
:10035A007F240A128A110C3083120313DF005F080C
:10036A00F30001300A128A1598220A128A115D30A6
:10037A000A128A1113200A128A115D300A128A158A
:10038A0073220A128A110D300A128A150F220A12D2
:10039A008A110800831203132608AA002708AB0053
:1003AA002808AC002908AD0006300310AA0DAB0DD1
:1003BA00AC0DAD0DFF3E031DDA292D08F3002C0804
:1003CA00F2002B08F1002A08F0002608AE002708E0
:1003DA00AF002808B0002908B10006300310AE0D9E
:1003EA00AF0DB00DB10DFF3E031DF3290030B20071
:1003FA002D30B3003130B4000130B5002E08B202FE
:10040A002F08031C2F0F0A2A0B2AB3023008031CD9
:10041A00300F102A112AB4023108031C310F162A90
:10042A00172AB5023508F7003408F6003308F50034
:10043A003208F4000A128A15A9260A128A117108CA
:10044A00FA007008F90001307A02003003197902C3
:10045A00031C302A312A8D2A831203132608AA0084
:10046A002708AB002808AC002908AD0004300310A7
:10047A00AA0DAB0DAC0DAD0DFF3E031D3C2A2D0898
:10048A00F3002C08F2002B08F1002A08F0002608D5
:10049A00AE002708AF002808B0002908B1000430D0
:1004AA000310AE0DAF0DB00DB10DFF3E031D552A61
:1004BA000030B2002D30B3003130B4000130B50045
:1004CA002E08B2022F08031C2F0F6C2A6D2AB302C2
:1004DA003008031C300F722A732AB4023108031C35
:1004EA00310F782A792AB5023508F7003408F60060
:1004FA003308F5003208F4000A128A15A9260A12EE
:10050A008A117108FA007008F90083160313181586
:10051A0001307A020030031979020318952A962AC3
:10052A00AB2A79088316031399008717071718123D
:10053A00831203139817831603138C16831203135B
:10054A0018168316031398168B170B1708008312B5
:10055A00031327088039A8002808B1002708A80033
:10056A002807A9002908B800A61FBC2ABD2ABE2A46
:10057A00381438080319C22AC32AD32A380A031D91
:10058A00C72AC82AD02A0030A7000030A6000030A7
:10059A00A5000030A400A617A701DB2A0030A70097
:1005AA000030A6000030A5000030A40023088039DE
:1005BA00A8002808B1062308A8002807A9002908C6
:1005CA00B900A21FE92AEA2AEB2A391439080319C1
:1005DA00EF2AF02A002B390A031DF42AF52AFD2AEC
:1005EA000030A3000030A2000030A1000030A000BB
:1005FA00A217A301082B0030A3000030A20000308C
:10060A00A1000030A0002308220421042004031DB5
:10061A000F2B102B292B0030A7000030A60000302A
:10062A00A5000030A4008030A6047F30A70431085A
:10063A00A8002808A7042708A3002608A20025085E
:10064A00A1002408A000882C3808031D2D2B2E2B6E
:10065A00372B0030A3000030A2000030A100003088
:10066A00A000882C3808A800A9012908AB0039087D
:10067A002802AA00031CAB032A087F3EB2002B08FB
:10068A000318013E003EB3002708B0002608AF0059
:10069A002508AE002408AD000030A7000030A600EF
:1006AA000030A5000030A4000030B7000030B600CA
:1006BA000030B5000030B400B901AD2B3908031978
:1006CA00672B682B882B0130A8000310AD0DAE0DE7
:1006DA00AF0DB00DA80B6A2B0130A8000310A40DB2
:1006EA00A50DA60DA70DA80B732BB71F7D2B7E2B6F
:1006FA007F2B24140130A8000310B40DB50DB60DDC
:10070A00B70DA80B812B23083002031D962B220854
:10071A002F02031D962B21082E02031D962B20085B
:10072A002D02031C992B9A2BA92B37172008AD02EF
:10073A002108031C210FAE022208031C220FAF025C
:10074A002308031C230FB0020130A8002808B907A8
:10075A001A303902031CB22BB32B632B30082F0437
:10076A002E042D040319BA2BBB2BDA2B3414DA2BE3
:10077A000130A8000310A40DA50DA60DA70DA80B06
:10078A00BF2BB71FC92BCA2BCB2B24140130A800AF
:10079A000310B40DB50DB60DB70DA80BCD2BFF3058
:1007AA00B2070318B30AFF30B307A61FDD2BDE2BEF
:1007BA00BD2BB901B71FE22BE32BFF2BFF3034050A
:1007CA00A800FF303505A900FF303605AA007F30A2
:1007DA003705AB002B082A04290428040319F62B31
:1007EA00F72BFA2BB901B90AFF2B241CFD2BFE2B80
:1007FA00FF2BF72B39080319032C042C352C013055
:10080A00A407003003180130A5070030031801308F
:10081A00A607003003180130A707271C152C162C31
:10082A00352C2408A8002508A9002608AA002708AC
:10083A00AB000130AC002B0DAB0CAA0CA90CA80C18
:10084A00AC0B202C2B08A7002A08A6002908A50013
:10085A002808A4000130B2070318B30A0030B3070E
:10086A003308803AFF0080307F02031D3E2CFF30A0
:10087A003202031C412C422C502CFF3083120313EA
:10088A00B2000030B3000030A7000030A6000030EC
:10089A00A5000030A400831203133308803AFF0036
:1008AA0080307F02031D5B2C0130320203185E2C5C
:1008BA005F2C6C2C83120313B201B3010030A70022
:1008CA000030A6000030A5000030A400B101831258
:1008DA0003133208A8002808B800381C752C762C97
:1008EA00782CA6177C2C7F30A8002808A605380883
:1008FA00A8000310280CA9002908A7003108A8009D
:10090A002808A704202B0800831203133D08803906
:10091A00C2004208C7003D08C2004207C30043089C
:10092A00CD00BC1F992C9A2C9B2C4D144D080319F1
:10093A009F2CA02CAF2C4D0A031DA42CA52CAD2C4A
:10094A000030BD000030BC000030BB000030BA00EF
:10095A00BC17B72C0030BD000030BC000030BB0013
:10096A000030BA0041088039C2004208C70641086F
:10097A00C2004207C3004308CC00C01FC52CC62CC6
:10098A00C72C4C144C080319CB2CCC2CDB2C4C0A4E
:10099A00031DD02CD12CD92C0030C1000030C0004E
:1009AA000030BF000030BE00C017E32C0030C10089
:1009BA000030C0000030BF000030BE004C080319F0
:1009CA00E72CE82CED2C4D08031DEC2CED2CF62C15
:1009DA000030BD000030BC000030BB000030BA005F
:1009EA00E92F3A08C2004208F00040080A128A15A4
:1009FA00BE220A128A11710883120313D3007008E7
:100A0A00D2005208C200C301C401C5014508CB0087
:100A1A004408CA004308C9004208C8005308C20073
:100A2A00C301C401C5014508D1004408D0004308E8
:100A3A00CF004208CE003B08C2004208F0003F083F
:100A4A000A128A15BE220A128A1171088312031326
:100A5A00D3007008D2005208C200C301C401C50104
:100A6A004208C807430803110318013E03193E2D23
:100A7A00C907440803110318013E0319452DCA0783
:100A8A00450803110318013E03194C2DCB075308DF
:100A9A00C200C301C401C5014208CE0743080311BD
:100AAA000318013E03195A2DCF07440803110318EE
:100ABA00013E0319612DD007450803110318013EB1
:100ACA000319682DD1073C08C2004208F0003E080D
:100ADA000A128A15BE220A128A1171088312031396
:100AEA00D3007008D2005208C200C301C401C50174
:100AFA004208C807430803110318013E0319862D4B
:100B0A00C907440803110318013E03198D2DCA07AA
:100B1A00450803110318013E0319942DCB07530806
:100B2A00C200C301C401C5014208CE07430803112C
:100B3A000318013E0319A22DCF0744080311031815
:100B4A00013E0319A92DD007450803110318013ED8
:100B5A000319B02DD1070830C2000310C80DC90D02
:100B6A00CA0DCB0DC20BB22D3B08C2004208F000E1
:100B7A003E080A128A15BE220A128A1171088312C5
:100B8A000313D3007008D2005208C2005308C300EE
:100B9A00C401C5014208C807430803110318013EEE
:100BAA000319D82DC907440803110318013E031974
:100BBA00DF2DCA07450803110318013E0319E62D64
:100BCA00CB073A08C2004208F0003F080A128A1509
:100BDA00BE220A128A11710883120313D300700805
:100BEA00D2005208C2005308C300C401C50142081A
:100BFA00C807430803110318013E0319052EC90744
:100C0A00440803110318013E03190C2ECA074508AC
:100C1A0003110318013E0319132ECB070830C20033
:100C2A000310C80DC90DCA0DCB0DC20B152E3A08FB
:100C3A00C2004208F0003E080A128A15BE220A12B1
:100C4A008A11710883120313D3007008D200520864
:100C5A00C2005308C300C401C5014208C8074308BB
:100C6A0003110318013E03193B2EC9074408031157
:100C7A000318013E0319422ECA0745080311031837
:100C8A00013E0319492ECB073B08C2004208F00077
:100C9A0040080A128A15BE220A128A1171088312A2
:100CAA000313D3007008D2005208C2005308C300CD
:100CBA00C401C5014208CE07430803110318013EC7
:100CCA000319682ECF07440803110318013E0319BC
:100CDA006F2ED007450803110318013E0319762E1B
:100CEA00D1073C08C2004208F0003F080A128A15E0
:100CFA00BE220A128A11710883120313D3007008E4
:100D0A00D2005208C2005308C300C401C5014208F8
:100D1A00CE07430803110318013E0319952ECF0786
:100D2A00440803110318013E03199C2ED0074508F5
:100D3A0003110318013E0319A32ED1073C08C20070
:100D4A004208F00040080A128A15BE220A128A11C5
:100D5A00710883120313D3007008D2005208C2002C
:100D6A005308C300C401C50108300310C20DC30DE6
:100D7A00C40DC50DFF3E031DBA2E4208CE07430817
:100D8A0003110318013E0319CB2ECF0744080311A0
:100D9A000318013E0319D22ED00745080311031880
:100DAA00013E0319D92ED1074808C2004908C300D9
:100DBA004A08C4004B08C50018300310C50CC40CFF
:100DCA00C30CC20CFF3E031DE22E4208CE074308A5
:100DDA0003110318013E0319F32ECF074408031128
:100DEA000318013E0319FA2ED00745080311031808
:100DFA00013E0319012FD1070830C2000310C80DA4
:100E0A00C90DCA0DCB0DC20B032F4D084C07C200EA
:100E1A00C301C30D4208823ED20043080318013EB3
:100E2A00FF3ED300352F0130C2000310CE0DCF0D87
:100E3A00D00DD10DC20B1A2FCB1F242F252F262FF1
:100E4A004E140130C2000310C80DC90DCA0DCB0DD6
:100E5A00C20B282FFF30D2070318D30AFF30D3075B
:100E6A00D01F382F392F182FCC01CB1F3D2F3E2FE3
:100E7A005A2FFF304805C200FF304905C300FF3032
:100E8A004A05C4007F304B05C500450844044304A5
:100E9A0042040319512F522F552FCC01CC0A5A2F35
:100EAA004E1C582F592F5A2F522F4C0803195E2FB8
:100EBA005F2F902F0130CE07003003180130CF0783
:100ECA00003003180130D007003003180130D10771
:100EDA00511C702F712F902F4E08C2004F08C3006B
:100EEA005008C4005108C5000130C600450DC50CA4
:100EFA00C40CC30CC20CC60B7B2F4508D100440896
:100F0A00D0004308CF004208CE000130D2070318B0
:100F1A00D30A0030D3075308803AFF0080307F029B
:100F2A00031D992FFF305202031C9C2F9D2FA82FBF
:100F3A007F3083120313D1008030D0000030CF00FD
:100F4A000030CE00DD2F831203135308803AFF00CE
:100F5A0080307F02031DB32F013052020318B62FCF
:100F6A00B72FC32F003083120313D1000030D000F3
:100F7A000030CF000030CE00C701DD2F83120313EB
:100F8A005208C2004208CD00FF30CE05FF30CF051F
:100F9A007F30D0050030D1054D1CD42FD52FD62F48
:100FAA00D0174D08C2000310420CC3004308D100F9
:100FBA004708C2004208D1045108BD005008BC00CD
:100FCA004F08BB004E08BA00080083120313E6015B
:100FDA00E701E801E901EA01EB01EC01ED01EE01AB
:100FEA00EF0183160313A001A101A201A30183014A
:100FFA000A128A159E2B08308A000408840A82077E
:10100A000034533465347234693461346C342034B6
:10101A0049346E34743465347234663461346334FA
:10102A006534203469346E342034313436344634ED
:10103A0038343734373441340034543468346534FE
:10104A00203452346F346F346D3420345434653460
:10105A006D34703465347234613474347534723476
:10106A0065343A3400345434683465342034763480
:10107A006F346C34743461346734653420346134C9
:10108A00743420345234413430343A3400345234D3
:10109A00413431342D343E34743465346D34703413
:1010AA003A3400345234413430342D343E345634D8
:1010BA006F346C3474343A34003427344334003493
:0410CA005634003464
:101414008030831603139F000800F0008316031323
:10142400981C152A162A102A70088312031399008F
:101434000C1E1D2A1E2A1A2A0C12080001300A1238
:101444008A1539220A128A1506300A128A15392297
:101454000A128A150C300A128A1539220A128A15C0
:1014640038300A128A1539220A128A150800F20045
:101474007208831203138800061286164130F100A5
:10148400EE30F000F00B442AF10B442A00008312E2
:10149400031386124130F100EE30F000F00B502AB5
:1014A400F10B502A00000800F200720883120313A3
:1014B4008800061686164130F100EE30F000F00B7D
:1014C400612AF10B612A0000831203138612413052
:1014D400F100EE30F000F00B6D2AF10B6D2A0000E4
:1014E4000800F300F101F2018A2A710873078400ED
:1014F4000A128A1500200A128A150A128A150F2266
:101504000A128A150130F1070318F20A0030F207B3
:101514007108730784000A128A1500200A128A15BA
:10152400003A031D962A972A772A0800F4007408C3
:10153400031D9D2A9E2AAB2A80300A128A1539225D
:101544000A128A157308803E0A128A1539220A1271
:101554008A157403031DAF2AB02ABD2AC0300A12AB
:101564008A1539220A128A157308C03E0A128A158E
:1015740039220A128A150800F800F401F5017008EE
:10158400F200F3017208F6007308F700781CCB2A06
:10159400CC2AD22A7608F4070318F50A7708F50747
:1015A40001300310F60DF70DFF3E031DD32A03107F
:1015B400F80C7808031DDF2AE02AC82A7508F10010
:1015C4007408F0000800700871040319EA2AEB2A71
:1015D4001A2BF501F50AF92A01300310F00DF10D6B
:1015E400FF3E031DEF2A0130F4007408F507F11FD4
:1015F400FC2AFD2AEE2A71087302031D032B7008CE
:101604007202031C062B072B0D2B7008F2027108C3
:10161400031CF303F30201300310F10CF00CFF3E42
:10162400031D0E2B0130F502031D192B1A2BFD2A65
:101634007308F1007208F0000800492BC5308312CA
:1016440003139F001F19272B282B242B1E088316F6
:101654000313A3001E08A200592BCD3083120313D9
:101664009F001F19362B372B332B282BD530831291
:1016740003139F001F193F2B402B3C2B282B831255
:1016840003139F011F19472B482B442B282B710848
:10169400003A03194E2B412B7008003A0319202BF2
:1016A400013A03192F2B033A0319382B412B080055
:1016B400F501F601700871040319612B622B992B53
:1016C400F701F70A702B01300310F00DF10DFF3E06
:1016D400031D662B0130F4007408F707F11F732B08
:1016E400742B652B01300310F50DF60DFF3E031D21
:1016F400752B71087302031D812B70087202031C81
:10170400842B852B8C2B7008F2027108031CF303C5
:10171400F302751401300310F10CF00CFF3E031DAD
:101724008D2B0130F702031D982B992B742B76080F
:10173400F1007508F0000800831603138601831274
:10174400031386018316031388018312031388018C
:10175400861006110030A9000030A8002530A7002B
:101764008030A6000A128A11CF210A128A1501308C
:101774000A128A1573220A128A150D300A128A1562
:101784000F220A128A150A128A1520220A128A15B1
:101794000A128A150A220A128A150A128A113A2092
:1017A4000A128A150A128A1104210A128A150A12C7
:1017B4008A1105200A128A15003A0319E22BE32B39
:1017C400CF2B0A128A110B200A128A15313A031DF3
:1017D400EC2BED2BF12B831203130615CF2B0A12DE
:1017E4008A110B200A128A15303A031DFA2BFB2B9F
:1017F400FF2B831203130611CF2BCF2B0A128A114E
:101804000028031083120313560D570DD8005808EF
:10181400DE005E08031D0F2C102C192C0030D7009D
:101824000030D6000030D5000030D4007E2C54089F
:10183400D8005508D9005608DA005708DB001F30D5
:101844000310DB0CDA0CD90CD80CFF3E031D222C40
:101854005808DC005C08DD00D617FF30D405FF30E3
:10186400D505FF30D6050030D7059630DE02DE1FE1
:101874003C2C3D2C572C5E08803A973E0318432C91
:10188400442C452C102C01300310D70CD60CD50C4D
:10189400D40CFF3E031D462C0130D8005808DE0747
:1018A400031D552C562C452C6E2C20305E02031C37
:1018B4005C2C5D2C692C102C0130D8000310D40D45
:1018C400D50DD60DD70DD80B602C0130DE025E0885
:1018D400031D6D2C6E2C5E2C5D080319722C732C69
:1018E4007E2CD409D509D609D709D40A0319D50AF7
:1018F4000319D60A0319D70A0800E830F0000330A8
:10190400F1007908F3007808F2000A128A155A23C4
:101914000A128A15710883160313A1007008A00027
:10192400E830F0000330F1007908F3007808F200A1
:101934000A128A15E5220A128A1571088312031302
:10194400EF007008EE006430F0000030F1006F0822
:10195400F3006E08F2000A128A155A230A128A1535
:10196400710883120313ED007008EC006430F0007A
:101974000030F1006F08F3006E08F2000A128A15B5
:10198400E5220A128A15710883120313EB0070080A
:10199400EA000A30F0000030F1006B08F3006A0836
:1019A400F2000A128A155A230A128A157108831240
:1019B4000313E9007008E8000A30F0000030F10079
:1019C4006B08F3006A08F2000A128A15E5220A126B
:1019D4008A15710883120313E7007008E60068088B
:1019E400303E0A128A150F220A128A158312031333
:1019F4006608303E0A128A150F220A128A15080058
:101A0400E830F0000330F1007908F3007808F200C0
:101A14000A128A155A230A128A15710883160313A7
:101A2400A1007008A000E830F0000330F10079084C
:101A3400F3007808F2000A128A15E5220A128A15C0
:101A4400710883120313EF007008EE006430F00095
:101A54000030F1006F08F3006E08F2000A128A15D4
:101A64005A230A128A15710883120313ED007008B1
:101A7400EC006430F0000030F1006F08F3006E08F1
:101A8400F2000A128A15E5220A128A1571088312D5
:101A94000313EB007008EA000A30F0000030F10094
:101AA4006B08F3006A08F2000A128A155A230A1214
:101AB4008A15710883120313E9007008E8000A30DC
:101AC400F0000030F1006B08F3006A08F2000A121B
:101AD4008A15E5220A128A15710883120313E70096
:101AE4007008E6006808303E0A128A1556220A1267
:101AF4008A15831203136608303E0A128A15562289
:101B04000A128A150800E830F0000330F100790861
:101B1400F3007808F2000A128A155A230A128A1569
:101B2400710883160313A1007008A000E830F000C8
:101B34000330F1007908F3007808F2000A128A15DC
:101B4400E5220A128A15710883120313EF00700844
:101B5400EE006430F0000030F1006F08F3006E080E
:101B6400F2000A128A155A230A128A15710883127E
:101B74000313ED007008EC006430F0000030F10055
:101B84006F08F3006E08F2000A128A15E5220A12A1
:101B94008A15710883120313EB007008EA000A30F7
:101BA400F0000030F1006B08F3006A08F2000A123A
:101BB4008A155A230A128A15710883120313E9003D
:101BC4007008E8000A30F0000030F1006B08F30000
:101BD4006A08F2000A128A15E5220A128A157108A7
:101BE40083120313E7007008E6006C08303E0A1203
:101BF4008A150F220A128A15831203136808303ECD
:101C04000A128A150F220A128A152E300A128A1510
:101C14000F220A128A15831203136608303E0A1231
:101C24008A150F220A128A150800E830F0000330E2
:101C3400F1007908F3007808F2000A128A155A2391
:101C44000A128A15710883160313A1007008A000F4
:101C5400E830F0000330F1007908F3007808F2006E
:101C64000A128A15E5220A128A15710883120313CF
:101C7400EF007008EE006430F0000030F1006F08EF
:101C8400F3006E08F2000A128A155A230A128A1502
:101C9400710883120313ED007008EC006430F00047
:101CA4000030F1006F08F3006E08F2000A128A1582
:101CB400E5220A128A15710883120313EB007008D7
:101CC400EA000A30F0000030F1006B08F3006A0803
:101CD400F2000A128A155A230A128A15710883120D
:101CE4000313E9007008E8000A30F0000030F10046
:101CF4006B08F3006A08F2000A128A15E5220A1238
:101D04008A15710883120313E7007008E6006C0853
:101D1400303E0A128A1556220A128A1583120313B8
:101D24006808303E0A128A1556220A128A152E3085
:101D34000A128A1556220A128A1583120313660898
:101D4400303E0A128A1556220A128A150800831296
:101D54000313A101F31FAF2EB02EBD2EF009F1091C
:101D6400F209F309F00A0319F10A0319F20A031933
:101D7400F30AA101A10AF71FC02EC12ED02EF40927
:101D8400F509F609F709F40A0319F50A0319F60A1D
:101D94000319F70A0130F8007808A1060030A500FD
:101DA4000030A4000030A3000030A20073087204C5
:101DB400710470040319DF2EE02E2D2FA001A00A58
:101DC400F02E0130F8000310F00DF10DF20DF30DBB
:101DD400F80BE52E0130F8007808A007F31FF32E66
:101DE400F42EE32E0130F8000310A20DA30DA40D70
:101DF400A50DF80BF62E73087702031D0B2F72083E
:101E04007602031D0B2F71087502031D0B2F70083A
:101E14007402031C0E2F0F2F1E2F7008F40271087A
:101E2400031C710FF5027208031C720FF60273088B
:101E3400031C730FF702221401300310F30CF20C8D
:101E4400F10CF00CFF3E031D1F2F0130A002031DF7
:101E54002C2F2D2FF42E21080319312F322F3D2F33
:101E6400A209A309A409A509A20A0319A30A03192B
:101E7400A40A0319A50A2508F3002408F20023087C
:101E8400F1002208F0000800F800780803194B2F2D
:101E94004C2F602FF31F4F2F502F602F7009FA0023
:101EA4007109FB007209FC007309FD00FA0A0319A9
:101EB400FB0A0319FC0A0319FD0A682F7308FD00C5
:101EC4007208FC007108FB007008FA0073087204C1
:101ED40071047004031D6F2F702F792F0030F300ED
:101EE4000030F2000030F1000030F000FF2F963097
:101EF400F4007408F9008B2F0130F4007408F9071A
:101F040001300310FD0CFC0CFB0CFA0CFF3E031D0E
:101F1400832FFE307D05031D902F912F7E2FAD2F33
:101F24000130F4007408F9070130FA07003003188F
:101F34000130FB07003003180130FC0700300318A0
:101F44000130FD0701300310FD0CFC0CFB0CFA0CF6
:101F5400FF3E031DA52FFF307D05031DB22FB32FB8
:101F6400922FBF2F0130F9020130F4000310FA0D53
:101F7400FB0DFC0DFD0DF40BB82FFC1BC22FC32F62
:101F8400C92F023079020318C82FC92FB42F79182A
:101F9400CC2FCD2FD52FFF30FA05FF30FB057F3036
:101FA400FC05FF30FD050310F90C7908F400F50178
:101FB400F601F70118300310F40DF50DF60DF70DC9
:101FC400FF3E031DDD2F7408FA047508FB04760830
:101FD400FC047708FD0478080319F12FF22FF72F7A
:101FE400F31FF52FF62FF72FFD177D08F3007C085C
:0C1FF400F2007B08F1007A08F000080001
:02400E007A3FF7
:00000001FF
