:020000040000FA
:100000000A128A11FC2F00308A000408840A820731
:10001000003441344C344134523441344D34203472
:1000200054345234493447344734453452344534D7
:1000300044340034573465346C3463346F346D3475
:100040006534203474346F342034503449344334AC
:100050000034483455344D3441344E342034443423
:1000600045345434453443345434453444340034F2
:1000700059344F34523420345234203453344134C0
:10008000463445340034483465346C346C346F3451
:1000900020344234493454345334003441344C34E1
:1000A000413452344D3420344F34463446340034D5
:100D700001300A128A11D8260A128A11080001309D
:100D80000A128A11D8260A128A1106300A128A110A
:100D9000D8260A128A110C300A128A11D8260A1291
:100DA0008A1138300A128A11D8260A128A110800CC
:100DB000F20072088312031388000612861641306F
:100DC000F100EE30F000F00BE32EF10BE32E00000B
:100DD0008312031386124130F100EE30F000F00B65
:100DE000EF2EF10BEF2E00000800F20072088312C4
:100DF00003138800061686164130F100EE30F0002D
:100E0000F00B002FF10B002F00008312031386124A
:100E10004130F100EE30F000F00B0C2FF10B0C2FF5
:100E200000000800F4007408031D172F182F252F49
:100E300080300A128A11D8260A128A117308803E5D
:100E40000A128A11D8260A128A117403031D292F47
:100E50002A2F372FC0300A128A11D8260A128A1177
:100E60007308C03E0A128A11D8260A128A11080095
:100E7000F500522F750884000A128A1103200A1205
:100E80008A110A128A11F5260A128A110130F3001A
:100E90007308F5070730F4007D30F300F30B4E2F95
:100EA000F40B4E2F750884000A128A1103200A12CF
:100EB0008A11003A031D5D2F5E2F3A2F0800013082
:100EC00083160313860001308312031386008316F2
:100ED000031388018312031388010A128A11BF26A3
:100EE0000A128A11F30100300A128A1112270A121B
:100EF0008A1112300A128A1138270A128A11023016
:100F0000F6007608F30001300A128A1112270A123D
:100F10008A113B300A128A1138270A128A111A30B4
:100F2000F8005E30F7006E30F600F60B952FF70BE9
:100F3000952FF80B952F00000A128A11B8260A1275
:100F40008A1183120313061CA62FA72FD92F8614EC
:100F500006150230F6007608F30000300A128A11F6
:100F600012270A128A1121300A128A1138270A120E
:100F70008A11F30101300A128A1112270A128A110A
:100F800001300A128A1138270A128A111A30F80021
:100F90005E30F7006E30F600F60BCC2FF70BCC2F3F
:100FA000F80BCC2F00000A128A11B8260A128A11F7
:100FB000A12F861006110230F6007608F3000030EB
:100FC0000A128A1112270A128A1130300A128A1163
:100FD00038270A128A11F30101300A128A111227E6
:100FE0000A128A1146300A128A1138270A128A1107
:100FF000C62F0A128A11002883010A128A115F2F54
:02400E007A3FF7
:00000001FF
