:020000040000FA
:100000000A128A11FC2F00308A000408840A820731
:100010000034573465346C3463346F346D34653474
:10002000203474346F342034503449344334003431
:10003000483465346C346C346F3420344234493481
:0600400054345334003477
:100E220001300A128A1131270A128A110800013090
:100E32000A128A1131270A128A1106300A128A11FD
:100E420031270A128A110C300A128A1131270A122A
:100E52008A1138300A128A1131270A128A110800BF
:100E6200F2007208831203138800061286164130BC
:100E7200F100EE30F000F00B3C2FF10B3C2F0000A4
:100E82008312031386124130F100EE30F000F00BB2
:100E9200482FF10B482F00000800F200720883125D
:100EA20003138800061686164130F100EE30F0007A
:100EB200F00B592FF10B592F0000831203138612E6
:100EC2004130F100EE30F000F00B652FF10B652F91
:100ED20000000800F4007408031D702F712F7E2F8C
:100EE20080300A128A1131270A128A117308803E51
:100EF2000A128A1131270A128A117403031D822FE2
:100F0200832F902FC0300A128A1131270A128A11B8
:100F12007308C03E0A128A1131270A128A11080088
:100F2200F500AB2F750884000A128A1103200A12F9
:100F32008A110A128A114E270A128A110130F3000D
:100F42007308F5070730F4007D30F300F30BA72F89
:100F5200F40BA72F750884000A128A1103200A12C3
:100F62008A11003A031DB62FB72F932F080083165C
:100F72000313860183120313860183160313880168
:100F82008312031388010A128A1118270A128A117E
:100F9200F30100300A128A116B270A128A110130FA
:100FA2000A128A1191270A128A110230F600760873
:100FB200F30001300A128A116B270A128A111030CB
:100FC2000A128A1191270A128A111A30F8005E3029
:100FD200F7006E30F600F60BEC2FF70BEC2FF80B48
:100FE200EC2F00000A128A1111270A128A11C92F46
:0E0FF2000A128A11002883010A128A11B82FF0
:02400E007A3FF7
:00000001FF
